{
  "contractName": "DocumentVerification",
  "abi": [
    {
      "anonymous": false,
      "inputs": [
        {
          "indexed": true,
          "internalType": "bytes32",
          "name": "documentHash",
          "type": "bytes32"
        },
        {
          "indexed": true,
          "internalType": "address",
          "name": "sender",
          "type": "address"
        }
      ],
      "name": "DocumentAdded",
      "type": "event"
    },
    {
      "inputs": [
        {
          "internalType": "string",
          "name": "_documentHash",
          "type": "string"
        }
      ],
      "name": "addDocument",
      "outputs": [],
      "stateMutability": "nonpayable",
      "type": "function"
    },
    {
      "inputs": [
        {
          "internalType": "string",
          "name": "_documentHash",
          "type": "string"
        }
      ],
      "name": "verifyDocument",
      "outputs": [
        {
          "internalType": "bool",
          "name": "",
          "type": "bool"
        }
      ],
      "stateMutability": "view",
      "type": "function",
      "constant": true
    }
  ],
  "bytecode": "0x608060405234801561001057600080fd5b5061048f806100206000396000f3fe608060405234801561001057600080fd5b50600436106100365760003560e01c8063beee5eb71461003b578063f740e0451461006b575b600080fd5b61005560048036038101906100509190610241565b610087565b6040516100629190610319565b60405180910390f35b61008560048036038101906100809190610241565b6100db565b005b6000808260405160200161009b9190610302565b60405160208183030381529060405280519060200120905060008082815260200190815260200160002060009054906101000a900460ff16915050919050565b6000816040516020016100ee9190610302565b60405160208183030381529060405280519060200120905060008082815260200190815260200160002060009054906101000a900460ff1615610166576040517f08c379a000000000000000000000000000000000000000000000000000000000815260040161015d90610334565b60405180910390fd5b600160008083815260200190815260200160002060006101000a81548160ff0219169083151502179055503373ffffffffffffffffffffffffffffffffffffffff16817fdbfa39e1690eb55308046a0453096b664b994ffbbd01e9a81be622d3ce8d816660405160405180910390a35050565b60006101ec6101e784610385565b610354565b90508281526020810184848401111561020457600080fd5b61020f8482856103e8565b509392505050565b600082601f83011261022857600080fd5b81356102388482602086016101d9565b91505092915050565b60006020828403121561025357600080fd5b600082013567ffffffffffffffff81111561026d57600080fd5b61027984828501610217565b91505092915050565b61028b816103dc565b82525050565b600061029c826103b5565b6102a681856103d1565b93506102b68185602086016103f7565b80840191505092915050565b60006102cf6017836103c0565b91507f446f63756d656e7420616c7265616479206578697374730000000000000000006000830152602082019050919050565b600061030e8284610291565b915081905092915050565b600060208201905061032e6000830184610282565b92915050565b6000602082019050818103600083015261034d816102c2565b9050919050565b6000604051905081810181811067ffffffffffffffff8211171561037b5761037a61042a565b5b8060405250919050565b600067ffffffffffffffff8211156103a05761039f61042a565b5b601f19601f8301169050602081019050919050565b600081519050919050565b600082825260208201905092915050565b600081905092915050565b60008115159050919050565b82818337600083830152505050565b60005b838110156104155780820151818401526020810190506103fa565b83811115610424576000848401525b50505050565b7f4e487b7100000000000000000000000000000000000000000000000000000000600052604160045260246000fdfea264697066735822122080e16176ef62b48e49068c00fd319e7113dee1afdf248cb6beb89315deb78e5564736f6c63430008000033",
  "immutableReferences": {},
  "source": "// SPDX-License-Identifier: MIT\r\npragma solidity ^0.8.0;\r\n\r\ncontract DocumentVerification {\r\n    mapping(bytes32 => bool) private documentHashes;\r\n\r\n    event DocumentAdded(bytes32 indexed documentHash, address indexed sender);\r\n\r\n    function addDocument(string memory _documentHash) public {\r\n        bytes32 documentHashBytes = keccak256(abi.encodePacked(_documentHash));\r\n        require(!documentHashes[documentHashBytes], \"Document already exists\");\r\n        documentHashes[documentHashBytes] = true;\r\n        emit DocumentAdded(documentHashBytes, msg.sender);\r\n    }\r\n\r\n    function verifyDocument(string memory _documentHash) public view returns (bool) {\r\n        bytes32 documentHashBytes = keccak256(abi.encodePacked(_documentHash));\r\n        return documentHashes[documentHashBytes];\r\n    }\r\n}\r\n",
  "sourcePath": "C:\\Users\\HP\\OneDrive\\Desktop\\Blockchain-Document-Verification\\TruffleProject\\contracts\\DocumentVerification.sol",
  "compiler": {
    "name": "solc",
    "version": "0.8.0+commit.c7dfd78e.Emscripten.clang"
  },
  "schemaVersion": "3.4.16",
  "updatedAt": "2024-01-15T13:58:17.701Z",
  "networkType": "ethereum",
  "devdoc": {
    "kind": "dev",
    "methods": {},
    "version": 1
  },
  "userdoc": {
    "kind": "user",
    "methods": {},
    "version": 1
  }
}